:020000040800F2
:10000000600C0020BD010008790200087B02000896
:100010007F02000883020008870200080000000039
:100020000000000000000000000000008B0200083B
:100030008D020008000000008F02000891020008F5
:10004000D3010008D3010008D3010008D301000840
:10005000D3010008D3010008D3010008D301000830
:10006000D3010008D3010008D3010008D301000820
:10007000D3010008D3010008D3010008D301000810
:10008000D3010008D3010008D3010008D301000800
:10009000D3010008D3010008D3010008D3010008F0
:1000A000D3010008EF1C0008D3010008D3010008A9
:1000B000CB110008D3010008B3110008D3010008D8
:1000C000D3010008D3010008D3010008D3010008C0
:1000D000D3010008D3010008D3010008370D000840
:1000E000D3010008D3010008D301000800F002F892
:1000F00000F04FF80AA090E8000C82448344AAF173
:100100000107DA4501D100F044F8AFF2090EBAE870
:100110000F0013F0010F18BFFB1A43F0010318473B
:1001200050AC000070AC00000A4410F8014B14F011
:100130000F0508BF10F8015B240908BF10F8014B38
:100140006D1E05D010F8013B6D1E01F8013BF9D181
:10015000641E03D0641E01F8015BFBD19142E4D31D
:10016000704700000023002400250026103A28BF15
:1001700078C1FBD8520728BF30C148BF0B60704719
:10018000642907F09782002070471FB51FBD10B586
:1001900010BD07F05FFC1146FFF7F7FF00F02AF8EB
:1001A00007F07DFC03B4FFF7F2FF03BC00F028FA70
:1001B00030BF72B662B680F30888704708480047BF
:1001C000FEE7FEE7FEE7FEE7FEE7FEE7FEE7FEE707
:1001D000FEE7FEE703480449044A054B7047000068
:1001E000ED00000860060020600C00206008002080
:1001F00060080020092000F0AAF9482000F04AF821
:10020000022000F08FF9012000F08CF900F07EFA56
:1002100001201849086000F09FFA00F088FC4FF4B4
:10022000E131482000F00BFA4FF4165000F034FD95
:1002300000F0E2FD002141F61F4000F0B1FE00F0A9
:1002400005FF00F050FF00F0D3FF04F0FCFE04F0C7
:100250000EFF41F61F41312000F05AFE08E04FF436
:10026000FA7000F04FF805F0E5F8642000F04AF865
:10027000F5E70000B4012242704700BFFEE700BF6F
:10028000FEE700BFFEE700BFFEE77047704770471C
:10029000704700004FF0E021096921F004014FF0A0
:1002A000E0221161C21700EB5272C2F3C702234B66
:1002B0001A701946097801EB4102C2EBC1114FF6E1
:1002C000FF7202EAC1011E4A1180704701461B4AB3
:1002D00012784A434FF0E0235A6100229A610122CA
:1002E0001A6100BF4FF0E022106900F001021AB15C
:1002F00000F48032002AF5D000224FF0E0231A618A
:100300009A61704701460E4A12884A434FF0E02333
:100310005A6100229A6101221A6100BF4FF0E02267
:10032000106900F001021AB100F48032002AF5D001
:1003300000224FF0E0231A619A61704730000020DC
:1003400032000020A34A0A400243A34B1A607047C0
:100350000146072323EA010212029F4B1B1D186866
:100360004FF6FF0318409D4B184310439A4B1B1D3B
:10037000186070472DE9F0410746884614461D462F
:100380002846FFF7E5FFC5F1040007FA00F60F2045
:10039000284100EA0800064306F00F06E21704EBC6
:1003A000D2625211920002F1E022D2F800212146DD
:1003B000E31704EBD3635B11A4EB431C012303FAA3
:1003C0000CF31A432046E31704EBD3635B119B0045
:1003D00003F1E023C3F800218148005D40EA0610E4
:1003E0007F490855BDE8F08170B504460B46CE172D
:1003F00001EB9676C6F38700CE1701EB9676B61022
:10040000A1EB8606B606350E764B9B6943F00103D9
:10041000744EB3614FEAB63353F820300F26AE4026
:10042000B343714E46F82030334653F8203004FA77
:1004300005F61E436C4B43F820606C4B1B6801268D
:100440008E403343694E336002F0010343B1674B82
:100450000C331B6801268E403343644E0C363360E8
:1004600002F0020343B1614B08331E6801238B4045
:100470001E435E4B08331E6070BD00B50020594915
:100480000861C8601420486100208861C86108467E
:10049000006840F001000860084640685449084080
:1004A0005049486008460068524908404D49086074
:1004B0000846006820F4802008600846406820F460
:1004C000FE0048600020886000214FF00060FFF7C8
:1004D00039FF00BD10B540480830006840F0040006
:1004E0003D49083108603F48C06940F080503D49AF
:1004F000C8614148406840F480703F494860084600
:10050000006840F0040008600846006840F00200FF
:100510000860FFF74DFE10BD3048001D2E49091D33
:1005200008607047014649062E4A926942F001026E
:100530002C4B9A612C4A083A526822F0E0622A4B0E
:10054000083B5A601A4652680A435A60704730B5F1
:1005500004460025FFF791FF2248006840F48030F0
:100560002049086000BF1F480068400C0028FAD0EE
:100570004FF480601B494860A01EC4B20846406822
:1005800040EA844048600846406840F48030486053
:100590001A48006840F032001849086011480068A5
:1005A00040F080700F49086000BF0E480068400EA0
:1005B0000028FAD00B48406840F002000949486022
:1005C00005E008484068C0F3870505F00305022DE3
:1005D000F7D130BD80FFFF1F08ED00E00000FA05F5
:1005E00000E400E000100240080001400004014067
:1005F0000000FFF8FFFFF6FE007000400020024000
:10060000014600BF70473B4A1278012A0BD100BF58
:10061000394A128802F04002002AF9D0C2B2364BA1
:100620001B1D1A800AE000BF344A128802F0400203
:10063000002AF9D0C2B2314B1B1D1A8070472DE938
:10064000F05F05460E46300108F05CFD81462C49FE
:1006500005FB01F008F056FD8246494608F008FC0B
:100660000746384608F016FD84B2204608F04AFDD9
:100670008346394608F08BFE82464FF0834108F0EE
:1006800089FD814608F006FD80464FF6FF7000EABE
:10069000041404EB080084B21A48806940F0040096
:1006A000184988610846806940F48040886116488E
:1006B000006820F47F60144908600846006840F430
:1006C0000B6008600F48C06840F480400D49C86066
:1006D0000846C06820F48040C8600848083004809C
:1006E000001D008842F20C01084304490C310880C7
:1006F000BDE8F09F0600002000480040003801409F
:1007000040420F00001002400408014008B50121DA
:10071000102005F091FD4FF40050ADF800001020BE
:100720008DF8030003208DF802006946074805F0A4
:1007300061FA4FF40051054805F00BFB08BD044871
:100740000068C0430349C1F8B4017047001001407C
:10075000B40122420000224208B50121082005F020
:100760006BFD2020ADF8000048208DF8030069469D
:100770002E4805F03FFA20212C4805F0E8FA08BD84
:1007800001462B48006828B92A48007810B9012092
:10079000284A107028480078B0B926480078012807
:1007A00007D126480078401C244A10700120224AB4
:1007B000107022480078022806D100201F4A1070CD
:1007C0001F4A10800220704719480068012804D190
:1007D0000020184A1070184A107018480078012834
:1007E0000ED117480088401C80B2154A10808842FC
:1007F00006DD0020114A1070114A10800120E2E746
:100800000020E0E70F48007838B10948006820B9B7
:1008100000200C4908700120704705480068012835
:1008200001D1084908700020F6E70000000C0140E3
:100830001481214238000020390000203A000020B5
:100840003C0000203E00002010B50A461AB10123EA
:10085000FE4C236002E00023FC4C2360002114E0E6
:100860000023FB4C236000F080031BB10123241FF5
:10087000236003E00023F64C241F23600123F44C83
:1008800023604306180E4B1CD9B20829E8DB01236C
:10089000EE4C236010BD30B500241CE004F1B00123
:1008A000C8B20021FFF7D0FF00210846FFF7CCFFB8
:1008B00000211020FFF7C8FF002508E0E54901EB03
:1008C000C501085D0121FFF7BFFF681CC5B2802D7F
:1008D000F4DB601CC4B2082CE0DB30BD00B50021A5
:1008E0008D20FFF7B1FF00211420FFF7ADFF00219D
:1008F000AF20FFF7A9FF00BD00B500218D20FFF755
:10090000A3FF00211020FFF79FFF0021AE20FFF77B
:100910009BFF00BD30B500240CE0002506E0002060
:10092000CC4901EBC5010855681CC5B2802DF6DB2A
:10093000601CC4B2082CF0DBFFF7ADFF30BDF0B592
:10094000144600267F2801DC3F2900DDF0BD0B4660
:10095000CF1701EB5777FF10C7F10707FAB2CF1790
:1009600001EB5777FF10A1EBC707FDB2C5F10707F1
:100970000123BB40DEB24CB1B64B03EBC0039B5C22
:100980003343B44F07EBC007BB5408E0B14B03EB54
:10099000C0039B5CB343AF4F07EBC007BB5400BF22
:1009A000D4E72DE9F04F80460C4615461E46A34677
:1009B000A5F12000C5B200273EE00C2E07D105EBC3
:1009C0004500A54901EB800010F8079004E0A3481A
:1009D00000EB051010F807904FF0000A26E009F030
:1009E000800028B121464046099AFFF7A8FF09E098
:1009F000099808B9012000E000200246214640463F
:100A0000FFF79DFF4FEA49604FEA1069601CC4B2CE
:100A1000A4EB0B00B04205D15C4608F1010000F0E8
:100A2000FF0806E00AF1010000F0FF0ABAF1080F22
:100A3000D5DB00BF781CC7B2B742BEDBBDE8F08F84
:100A400010B50246012000E050430B00A1F1010463
:100A5000E1B2F9D110BD2DE9FF4F81B007469146B3
:100A60001E460E9D4FF0000A002439E0301B401E48
:100A7000C1B20A20FFF7E4FFB9FBF0F00A21B0FB96
:100A8000F1F201FB1208BAF1000F16D1701EA0425C
:100A900013DDB8F1000F0ED10120AB4605EBDB7181
:100AA000491001FB04710090C8B22B462022029924
:100AB000FFF777FF12E04FF0010A0120AB4605EB8C
:100AC000DB71491001FB04710090C8B208F13001DC
:100AD000CAB22B460299FFF764FF00BF601CC4B284
:100AE000B442C3DB05B0BDE8F08F78B505460E46CD
:100AF000144618E07A2D03DD002506F11000C6B279
:100B00003A2E04DD002005460646FFF703FF0120CC
:100B1000009022780C2331462846FFF742FF05F16A
:100B20000800C5B2641C20780028E3D178BD08B560
:100B30000121082005F080FB4FF40070ADF80000A3
:100B400010208DF8030002208DF802006946444809
:100B500005F050F80121112005F06EFB4FF46040C4
:100B6000ADF8000002208DF8020010208DF803007F
:100B700069463C4805F03EF8012005F094F9002054
:100B800005F0C7FA002006F0D8FC002005F08BF92C
:100B900000202F49083908606420FFF7B3FB0120CB
:100BA0003149C1F8B4010021AE20FFF74DFE00210C
:100BB000D520FFF749FE00215020FFF745FE002118
:100BC000A820FFF741FE00213F20FFF73DFE002156
:100BD000D320FFF739FE00210846FFF735FE00213C
:100BE0004020FFF731FE00218D20FFF72DFE002170
:100BF0001420FFF729FE00212020FFF725FE002109
:100C00000220FFF721FE0021A120FFF71DFE002199
:100C1000C020FFF719FE0021DA20FFF715FE0021A2
:100C20001220FFF711FE00218120FFF70DFE0021A9
:100C3000EF20FFF709FE0021D920FFF705FE002174
:100C4000F120FFF701FE0021DB200FE0A48121420B
:100C5000BC0122424C0100207E950008F299000858
:100C6000000C01400010014000002242FFF7ECFDA3
:100C700000213020FFF7E8FD0021A420FFF7E4FD6C
:100C80000021A620FFF7E0FD0021AF20FFF7DCFDEB
:100C9000FFF740FE08BD000010B586B004460121F4
:100CA000880405F0D6FA0121082005F0C5FA4FF4B2
:100CB0008060ADF8140003208DF8160018208DF820
:100CC000170005A9454804F095FF4FF40060ADF802
:100CD000140004208DF8170005A9404804F08AFF8D
:100CE00027208DF8000003208DF801008DF8020008
:100CF00001208DF80300684604F08BFC019400206D
:100D0000ADF80800ADF80A00ADF80C00ADF8100021
:100D10000C20ADF80E0001A9314806F042FA01227C
:100D200040F225512E4806F0D4FA01212C4806F055
:100D3000C4FA06B010BD10B540F22551284806F09F
:100D4000ADFB002848D02648001D008825490870C2
:100D500008460078412806D042280FD0432819D0F1
:100D600044282ED122E001201F49087000201F498D
:100D700008701F4908701F4908702CE000201A49AC
:100D80000870012019490870002019490870194994
:100D9000087020E0002014490870144908700120F0
:100DA0001349087000201349087014E000200E4910
:100DB00008700E4908700E49087001200D4908702E
:100DC00009E00020084908700849087008490870BF
:100DD0000849087000BF00BF10BD000000080140B6
:100DE00000480040400000200000002001000020DA
:100DF000020000200300002000B587B001214FF45D
:100E0000017005F019FA4FF4004005F079F910204F
:100E1000ADF8040000208DF8070001A9364804F061
:100E2000E9FE364804F05EFC002002908DF80C00CC
:100E30008DF80D004FF460200490002005900120F3
:100E40008DF8180002A92D4804F073FC01212B48ED
:100E500004F09BFC294804F0BAFC00BF274804F0CA
:100E6000BBFC0028FAD1254804F0C0FC00BF234891
:100E700004F0C1FC0028FAD107B000BD10B504464B
:100E80000723012221461D4804F0EBFC01211B48E9
:100E900004F0BBFC00BF0221184804F027FE002824
:100EA000F9D0164804F044FD10BD2DE9F04F85B08F
:100EB0000420FFF7E3FF019007F017FC4FF06632C4
:100EC0000F4BCDE9020107F05FFC804600220D4B7D
:100ED00007F05AFC064600220B4B07F055FC04466F
:100EE00000220A4B07F07AFA824607F0CFFB049003
:100EF000049805B0BDE8F08F0008014000240140CF
:100F000066660A4000001940000059400000B040E9
:100F10007FB505460C460121C80205F08DF9ADF8F4
:100F20000850ADF804400020ADF80A00ADF8060006
:100F30008DF80C0001A90F4805F0B6FA01210D4803
:100F400006F0D4F8012241210A4805F024FE1920B8
:100F50008DF8000000208DF801008DF802000120BE
:100F60008DF80300684604F054FB0121014805F0A8
:100F7000F7FD7FBD002C014008B50121082005F0D8
:100F80005BF94FF47040ADF8000010208DF80300BD
:100F900003208DF8020069462A4804F02BFE08BDA4
:100FA00030B589B005460C46FFF7E6FF0121022067
:100FB00005F04FF90121082005F03EF90320ADF8B6
:100FC000200018208DF8230003208DF8220008A9A6
:100FD0001C4804F00FFEADF81850ADF81440002086
:100FE000ADF81A00ADF8160005A9174805F05CFA2F
:100FF0006020ADF804000120ADF806000020ADF837
:101000000A00ADF80C0001A90F4805F019FB01A971
:101010000D4805F060FB01210B4805F0ADFD0821EE
:10102000094805F0E3FE0821074805F0E8FE012124
:10103000054805F095FE0121034805F091FD09B032
:1010400030BD0000000C01400004004000B587B036
:101050000121084605F0FDF80121042005F0ECF817
:101060000320ADF8000004208DF8030069465D48B8
:1010700004F0C0FD04A805F043FD0020ADF8100009
:101080004FF6FF70ADF814000020ADF81600ADF873
:10109000120004A94FF0804005F006FA00231A461A
:1010A00003214FF0804005F00EFE01A805F03BFD46
:1010B0000A20ADF80C0001A9400705F088FC0121C9
:1010C000880706F013F801221146900705F063FD2A
:1010D00000214FF0804005F0D7FF0121880705F07F
:1010E0003FFD07B000BD00B587B00121042005F029
:1010F000B0F80121082005F09FF8C020ADF80000ED
:1011000004208DF803006946374804F073FD04A8F5
:1011100005F0F6FC0020ADF810004FF6FF70ADF8BA
:1011200014000020ADF81600ADF8120004A92F48F5
:1011300005F0BAF900231A4603212C4805F0C3FD37
:1011400001A805F0F0FC0A20ADF80C0001A9274821
:1011500005F03DFC0121254805F0C8FF012211469C
:10116000224805F018FD0021204805F08DFF0121DF
:101170001E4805F0F5FC07B000BD0146022902D06B
:10118000042912D108E04FF08042928C10B2002264
:101190004FF080439A840AE0144A2432128810B235
:1011A0000022124B24331A8001E0002000BF00BF50
:1011B00070470E48103000880C481030008820F02E
:1011C00001000A491031088070474FF08040008AC2
:1011D0004FF08040008A20F001004FF080410882EB
:1011E0007047000000080140000C0140000800406A
:1011F00008B50121042005F01FF84FF41060ADF888
:10120000000010208DF8030003208DF802006946CD
:10121000F74804F0EFFC08BD10B5F548001D006864
:1012200020F00F00F249091D08600846006840F0F0
:10123000030008600120EF490860EF48D0F8200162
:1012400008B9002010BD0120EA490C310860FFF701
:101250003DF80020E849C1F8A001E6488038006860
:1012600008B10020EEE70120FFF730F80020E14947
:101270000C3108600120E5E710B5DD48001D00686D
:1012800020F00F00DA49091D08600846006840F0A8
:10129000030008600020D7490C310860D649C1F826
:1012A000A0010120FFF712F80120D2490C3108609B
:1012B000D149C1F8A001FFF709F810BD10B500240D
:1012C000CB48001D006820F00F00C949091D0860C7
:1012D0000846006840F0080008600120C549086021
:1012E000FEF7F4FF0120C449C1F8AC01FEF7EEFFA0
:1012F0000AE0601CC4B2322C03DDFFF7BDFF002002
:1013000010BD0120FEF7E2FFBA48803800680028CF
:10131000EFD1B8490C3108600120F1E710B5002089
:10132000B4490C310860B248001D006820F00F007D
:10133000AF49091D08600846006840F003000860D6
:101340000020AD49C1F8A0010120FEF7BFFF012038
:10135000A8490C310860FEF7B9FF0020A649C1F882
:10136000AC0110BD10B50020A2490C310860A048A6
:10137000001D006820F00F009D49091D0860084607
:10138000006840F00300086001209B49C1F8A001FB
:10139000FEF79CFF012097490C310860FEF796FF8D
:1013A00000209549C1F8AC0110BD70B504469048C5
:1013B000001D006820F00F008D49091D08600846D7
:1013C000006840F00300086000208A490C31086082
:1013D000002516E0E009874908606006040E012038
:1013E000FEF774FF01208449C1F8AC01FEF76EFFDF
:1013F000002080490C3108600120FEF767FF681C5F
:10140000C5B2082DE6DB70BD2DE9F04105460E465C
:1014100017469846FFF700FF10B90120BDE8F0819C
:101420006906080EFFF7C1FFFFF748FF18B9FFF77D
:1014300023FF0120F2E73046FFF7B7FFFFF73EFF3B
:1014400000240BE018F80400FFF7AFFFFFF736FFAA
:1014500018B9FFF711FF0020E0E7641CBC42F1DB84
:10146000FFF70AFF0020D9E770B505460024604861
:10147000001D006820F00F005D49091D0860084646
:10148000006840F008000860002617E00020594975
:101490000C3108600220FEF719FF01205649C1F8FF
:1014A000AC016006040E53488038006808B1601C27
:1014B000C4B20220FEF70AFF701CC6B2082EE5DB9C
:1014C00015B1FFF72BFF01E0FFF74CFF204670BD81
:1014D0002DE9F04106460F4614461D46FFF79CFED7
:1014E00010B90120BDE8F0817106080EFFF75DFF1D
:1014F000FFF7E4FE18B9FFF7BFFE0120F2E7384618
:10150000FFF753FFFFF7DAFEFFF786FE012101EB3D
:101510004601C8B2FFF749FFFFF7D0FE0DE0012CEE
:1015200004D10020FFF7A0FF287003E00120FFF79F
:101530009BFF28706D1C601EC4B2002CEFD1FFF71A
:101540009BFE0020CEE770B505460E460024FFF74F
:1015500063FE2846FFF729FF641CFFF7AFFE304605
:10156000FFF723FF641CFFF7A9FEFFF755FE691C78
:10157000C8B2FFF71AFF641CFFF7A0FE0020FFF7B8
:1015800073FF0446FFF778FE204670BD2DE9F04159
:101590000746884615461E460024FFF73DFE38469E
:1015A000FFF703FFFFF78AFE4046FFF7FEFEFFF757
:1015B00085FEFFF731FE791CC8B2FFF7F6FEFFF794
:1015C0007DFE00BF0DE0681EA04204D00120FFF7A1
:1015D0004BFF305503E00020FFF746FF3055601CFD
:1015E000C4B2AC42EFDBFFF747FE2046BDE8F08116
:1015F00000080140A0012142000021422DE9F041F4
:1016000080460D4616461F460024FFF705FE40465D
:10161000FFF7CBFEFFF752FE2846FFF7C6FEFFF7A7
:101620004DFE00BF06E0385DFFF7BFFEFFF746FE48
:10163000601CC4B2B442F6DBFFF71EFE0120BDE819
:10164000F08170B505460E46144631462846FFF730
:101650007AFF2070012070BD37B504460D4602ABFD
:10166000012229462046FFF7C9FF3EBD2DE9F84378
:101670000746884614461D46089E6A464146384637
:10168000FFF7DFFF28B3601CFF2101FA00F0C4F16F
:1016900008012944491EFF220A41104300F0FF09B6
:1016A000C5F1080006FA00F0C6B2C4F10700064111
:1016B0009DF8000000EA090000909DF8000030430A
:1016C00000909DF8002041463846FFF7C5FFBDE871
:1016D000F8830020FBE7F8B506460F4614461D4682
:1016E0006A4639463046FFF7ACFF2DB10120A040D5
:1016F0009DF80010084305E00120A0409DF800106F
:1017000021EA0000C0B200909DF800203946304622
:10171000FFF7A2FFF8BD00000146002901DA4842A8
:1017200000E00846704700B503460A46002B07DD77
:101730000120FE4908600020FD49C1F8B80106E01B
:101740000020FA4908600120F949C1F8B80118469B
:10175000FFF7E2FFF7490880002A08DD0020F3497F
:101760000C3908600120F249C1F8B40107E00120FA
:10177000EE490C3908600020ED49C1F8B40110466B
:10178000FFF7CAFFEB49091F088000BD70B5054689
:10179000E949284607F0CAFC08D3E849284607F07B
:1017A000C5FD03D3E648007801280ED101240020AE
:1017B000DE49091F0860DE49C1F8BC01DB490C396C
:1017C0000860DB49C1F8B40100E000240020DC49D6
:1017D0000870204670BD41F6BC30DA4909684242C3
:1017E000914202DA4142D74A1160D64909688142E2
:1017F00001DDD4490860D44909684242914202DAC5
:101800004142D14A1160D0490968814201DDCE4987
:10181000086070472DE9F84F05460E469146CB48C3
:101820000078962191FBF0F7384607F053FC044608
:10183000DFF81CA34FF0000BC6480078012803D046
:10184000C5480078012834D14FF07E51C348006864
:1018500007F0A0FAC149074608604FF07E5107F033
:10186000C9FB07D1A819FFF757FF074607F032FC5D
:10187000BB490860BA480168BA4807F0F9FABA49A2
:1018800008600846006807F059FA07464FF03332FF
:10189000B64B06F03DFF02D2B548B3490860B549E2
:1018A000B148006807F042FD0BD2B248AE4908606B
:1018B00007E0B148AC4908600020A8490860A84981
:1018C0000860A4480078012808D1A7480168AB48FF
:1018D000006807F067FDA94908600FE09E4800789E
:1018E000012808D1A0480168A448006807F052FA0E
:1018F000A249086002E00020A049086021469F48F4
:10190000006807F013FD01D29C48046084F0004792
:101910009A480168384607F009FD03D284F0004078
:101920009649086096480078012803D095480078C9
:10193000012802D14FF07E5B01E04FF0000B5946C9
:10194000484607F027FC00908C48006880F000486B
:101950005146404607F01EFC0746009907F022FD5D
:10196000894908600846006807F078FBBDE8F88FF1
:101970002DE9FC5F854801907F4800908048007801
:1019800001280AD171480078642191FBF0F42046C7
:1019900007F0A0FB7E49086012E07A480078012831
:1019A0000BD16A4800786FF09F0191FBF0F420465C
:1019B00007F090FB7649086002E000207449086057
:1019C00074490968744A12681144084607F082FB9A
:1019D000724908607248006807F0B0F90646714A1B
:1019E000714B06F0D1FE04460D466C48006807F0C6
:1019F000A5F906466D4A6E4B06F0C6FE80462246A5
:101A00002B4606F02FFC824606F0FAFB6949086077
:101A1000084601686848006807F0BCF96649086034
:101A20005B4801686448006807F0BCFC62490860D4
:101A300062496148006807F079FC02D25F485E495C
:101A400008605F495C48006807F070FB02D25C48A0
:101A50005949086058480099006807F09BFB044604
:101A600054480199006807F095FB0546214607F0A8
:101A700091F9544908604F48006849490860524844
:101A80000068FFF783FE012803D02D480078012865
:101A900002D10020484908604A48006807F0DEFA91
:101AA000BDE8FC9F2DE9F84F05460C46474E484FD0
:101AB0003049284607F076FC00903946204607F06A
:101AC00069FB82463046009907F064FB8346514625
:101AD00007F060F9814607F0C1FA80464046BDE84C
:101AE000F88F2DE9F04F87B04621D020FFF72BFD6E
:101AF00080464521D020FFF726FD08EB0027384619
:101B000007F0E8FA04464821D020FFF71CFD804684
:101B10004721D020FFF717FD08EB0027384607F0D4
:101B2000D9FA81463C21D02054E00000BC812142FA
:101B3000008021424004004000000CC200000C4222
:101B400005000020100000201400002004000020E8
:101B50000000284202000020030000208000002036
:101B600078000020000048427C0000203333E33F2F
:101B70009A99193F000040406666663F7000002059
:101B800000000020010000207400002000004843F5
:101B900064000020080000200C0000205C000020F1
:101BA0006C000020CDCCCCCCCCCCEC3F9A99999950
:101BB0009999B93F600000206800002000401C4651
:101BC00000401CC6580000202000002000801DC4DA
:101BD000666666BFFFF7B7FC80463B21D020FFF763
:101BE000B2FC08EB0027384607F074FA0690402153
:101BF000D020FFF7A8FC80463F21D020FFF7A3FCB0
:101C000008EB0027384607F065FA06464FF08E418C
:101C1000204607F08BFB05D24FF08F41204607F09E
:101C2000C1FB04464FF08E41484607F07FFB05D2CA
:101C30004FF08F41484607F0B5FB81464FF08E418B
:101C4000069807F073FB05D24FF08F41069807F016
:101C5000A9FB06904FF08E41304607F067FB05D296
:101C60004FF08F41304607F09DFB064684F0004060
:101C70005D490860304607F061F8074688460698D7
:101C800007F05CF882463A46434606F0D3F9002254
:101C9000564BCDE9000106F077FD554A554BCDE98D
:101CA000020106F09BFBCDE9040106F0A9FA054606
:101CB000204607F043F882464FF066324E4B06F05E
:101CC0008DFB074606F09CFA044684F0004739462F
:101CD000284602F0B3FE494800684949086049486F
:101CE000C0F800904848066007B0BDE8F08F10B516
:101CF0000121464805F0FDF900285FD00121434845
:101D000005F008FA4248007808B9012000E00020F8
:101D10003F49087008460078012803D1FFF7E1FE2B
:101D2000002010BD0220FFF728FA40423949086020
:101D30000420FFF722FA38490860FFF7D2FEFFF7C8
:101D4000B4F836490860284801682D480068FFF754
:101D5000A9FE33490860304801682E480068FFF743
:101D600007FE30490860274802682B480168294867
:101D70000068FFF74FFD2C49086029480068294991
:101D80000968084428490968401A28490860244815
:101D9000006824490968084423490968084424491B
:101DA0000860FFF718FD16480068FFF7EFFC28B938
:101DB0001F4801681D480068FFF7B5FC0020B0E728
:101DC00010B53220FEF7DCFC0446012C04D1194882
:101DD0000078C04317490870022C04D116480078D7
:101DE000C0431549087010BD2400002000806640E3
:101DF000F1D4C853FB21094066663040B40000208E
:101E0000200000202800002054000020002C014069
:101E100050000020080000200C0000201C000020C2
:101E200044000020480000204C000020100000204A
:101E300014000020050000200600002038B50446EC
:101E4000FB4890F82400C0B114B10220009001E0DA
:101E500000200090F64A1268D17BF54A526810784B
:101E60006B460122FFF7D0FA10B14FF0FF3038BDBA
:101E70009DF80010EE48417423E0ED48807A10B9D7
:101E80004FF0FF30F3E724B1E948407C08B100206F
:101E9000EDE714B10120009001E000200090E44A39
:101EA0001268D17BE24A526810786B460122FFF734
:101EB000ABFA10B14FF0FF30D9E79DF80010DC48C5
:101EC00041740020D3E738B5002419E0D8480068F1
:101ED000C07AA04204D0D6480068407DA04200D11C
:101EE0000CE0D349496808786B4601222146FFF788
:101EF000EFFA10B14FF0FF3038BD00BF601CC4B224
:101F0000CB4840680079A042E0DC0020F4E770B5DF
:101F100004460D46C6480068C07AA04204D0C448B2
:101F20000068407DA04202D14FF0FF3070BDC04834
:101F300040680079A04202DC4FF0FF30F6E7BC4970
:101F4000496808782B4601222146FFF7C1FAEDE7E0
:101F500038B50446B64890F82300A04201D10020CD
:101F600038BD14B13020009001E000200090B0484E
:101F7000807C20B19DF8000040F002000090AC4849
:101F800090F8220020B19DF8000040F08000009001
:101F9000A74A1268117DA64A526810786B46012242
:101FA000FFF732FA10B14FF0FF30D9E7A04880F8C0
:101FB00023400020D4E738B5044604F0700010B187
:101FC0000120009005E014B10020009001E04020C5
:101FD0000090974A1268917C954A526810786B4637
:101FE0000122FFF711FA20B1002191488172481EA9
:101FF00038BD9DF8000020F040018D48017300209D
:10200000009004F0400020B99DF8000040F004006A
:10201000009004F0200020B99DF8000040F002007C
:10202000009004F0100020B99DF8000040F001007D
:10203000009004F0080020B99DF8000040F038003E
:1020400000907B4A1268D17C794A526810786B46BE
:102050000122FFF7D9F920B1002175488172481E8D
:10206000C6E724B1082C02D00020FFF771FF7048AA
:102070008472002101753220FEF744F90020B7E791
:1020800038B504466A48807CA04201D1002038BDA2
:10209000002C46D0664A12681179654A5268107859
:1020A0006B460122FFF714FA10B14FF0FF30EEE754
:1020B0009DF8000020F0200000905D4A1268117920
:1020C0005B4A526810786B460122FFF79DF910B108
:1020D0004FF0FF30DBE70320FEF714F902200090F9
:1020E000534890F8220020B19DF8000040F0800095
:1020F00000904F4890F8230020B19DF8000040F078
:10210000300000904A4A1268117D494A526810789E
:102110006B460122FFF778F9002851D04FF0FF30CD
:10212000B5E7434A12681179414A526810786B4604
:102130000122FFF7CDF910B14FF0FF30A7E73C487F
:10214000807A00F0010028B19DF8000040F02000E6
:10215000009004E09DF8000020F020000090344A38
:1021600012681179324A526810786B460122FFF7E3
:102170004BF910B14FF0FF3089E70320FEF7C2F8AA
:102180002B4890F8220010B18020009001E0002040
:102190000090274890F8230020B19DF8000040F0FF
:1021A00030000090224A1268117D214A526810784E
:1021B0006B460122FFF728F910B14FF0FF3066E7B8
:1021C0001B488474002062E708B51948807A10B96A
:1021D0004FF0FF3008BD00200090154A1268D17BF7
:1021E000134A526810786B460122FFF70DF910B1BF
:1021F0004FF0FF30EEE70E4A126851790C4A5268F0
:1022000010786B460122FFF7FFF810B14FF0FF3056
:10221000E0E7074A12681179054A526810786B4660
:102220000122FFF7F1F828B14FF0FF30D2E70000AC
:1022300084000020F74890F82400002850D00C209B
:102240000090F44A12681179F24A526810786B468D
:102250000122FFF7D9F810B14FF0FF30BAE7C020E4
:102260000090EC48807A00F0010020B19DF8000059
:1022700040F020000090E74A12681179E54A526860
:1022800010786B460122FFF7BFF810B14FF0FF3016
:10229000A0E7E048407C10B10220009001E000205F
:1022A0000090DC4A1268D17BDA4A526810786B469B
:1022B0000122FFF7A9F810B14FF0FF308AE70020A4
:1022C0000090D44A12685179D24A526810786B460D
:1022D0000122FFF799F8002852D04FF0FF3079E73C
:1022E00004200090CB4A12681179CA4A52681078CB
:1022F0006B460122FFF788F810B14FF0FF3069E715
:10230000C448807C20B9C348807A00F0010010B92D
:102310004020009001E060200090BE4A12681179D0
:10232000BC4A526810786B460122FFF76DF810B175
:102330004FF0FF304EE7B748407C10B101200090CD
:1023400001E000200090B34A1268D17BB14A526884
:1023500010786B460122FFF757F810B14FF0FF30AD
:1023600038E7AC4A12685179AA4A52681078A94BEA
:1023700010330122FFF748F810B14FF0FF3029E782
:10238000002027E770B50446002624F00104A14888
:1023900090F8240008B1002070BD9E48807A10B9E2
:1023A0004FF0FF30F8E79B48057C807A2040994940
:1023B00008740846007CA04202D04FF0FF3600E0CF
:1023C000002614B99348007D18B10120FFF736FDAF
:1023D00002E00020FFF732FD3CB1FFF7F5FE20B12F
:1023E0008C4805744FF0FF30D6E73046D4E738B557
:1023F00004468848807A10B94FF0FF3038BDBC2CB5
:1024000002DB0120009015E0622C02DB022000902C
:1024100010E02A2C02DB032000900BE0142C02DBDE
:102420000420009006E00A2C02DB0520009001E069
:10243000062000907748C07A9DF80010884201D1AC
:102440000020DBE7734A12689178724A526810786C
:102450006B460122FEF7D8FF10B14FF0FF30CDE7F9
:102460009DF800106B48C1720020C7E738B50446DC
:10247000282C02DD4FF0FF3038BDDCB90020FFF71B
:1024800067FD00208DF8000007208DF80100614AEB
:102490001268917C5F4A526810786B460222FEF700
:1024A000B3FF10B14FF0FF30E6E700215948017546
:1024B0000020E1E70120FFF74BFD20208DF8000010
:1024C000012C06D100208DF801000520FFF78FFFB9
:1024D00017E0052C06DC01208DF801000520FFF730
:1024E00086FF0EE0142C06DC02208DF801000A2085
:1024F000FFF77DFF05E003208DF801001420FFF7B2
:1025000076FF9DF80100072101EB8010C0B28DF825
:102510000100404A1268917C3E4A526810786B462E
:102520000222FEF771FF10B14FF0FF30A4E708213F
:102530003848817200210173012101750020FFF7E5
:1025400021FF002098E738B504463248807A10B958
:102550004FF0FF3038BD2F4890F8240010B14FF0F5
:10256000FF30F7E72B48007D50B134B1282C04DC54
:10257000E0B2FFF77BFF0020ECE70020FFF776FFDB
:10258000042C01DA042404E0B4F57A7F01DD4FF471
:102590007A744FF47A7090FBF4F0401EC0B2009051
:1025A0001C4A126851781B4A526810786B46012207
:1025B000FEF72AFF10B14FF0FF30CBE79DF8000087
:1025C000401C4FF47A7191FBF0F081B21148C18147
:1025D0000146C9894810FFF70AFF0020BAE738B55D
:1025E00004460C48807A10B94FF0FF3038BD022CF9
:1025F00006D0042C07D0082C08D0102C0FD10BE0EB
:10260000002000900EE0082000900BE010200090C9
:1026100008E00000840000201820009002E04FF045
:10262000FF30E3E700BFF948407A9DF80010B0EBB7
:10263000E10F01D10020D9E7F44A1268D179F34AB9
:10264000526810786B460122FEF7DEFE10B14FF0A3
:10265000FF30CBE79DF80000C110EC48417200202C
:10266000C4E738B50446E948807A10B94FF0FF3026
:1026700038BDFA2C09D0B4F5FA7F09D0B4F57A7FC9
:1026800009D0B4F5FA6F0CD108E0002000900BE0FF
:102690000820009008E01020009005E0182000902D
:1026A00002E04FF0FF30E3E700BFD848007A9DF822
:1026B0000010B0EBE10F01D10020D9E7D34A126836
:1026C0009179D24A526810786B460122FEF79CFE3F
:1026D00010B14FF0FF30CBE79DF80000C010CB49A0
:1026E00008720020C4E71CB580208DF80000C74A9E
:1026F0001268917CC54A526810786B460122FEF739
:1027000083FE10B14FF0FF301CBD6420FDF7FAFDD1
:1027100000208DF80000BD4A1268917CBB4A5268C7
:1027200010786B460122FEF76FFE10B14FF0FF30BC
:10273000EAE7B64A1268917DB44A526810786B464F
:102740000622FEF7C5FE10B14FF0FF30DCE79DF822
:102750000500C007400F9DF8031001F0010140EA99
:1027600041009DF8011001F0010140EA010494B11B
:10277000012C03D10121A548C17431E0022C03D101
:102780000021A248C1742BE02146A1A004F052FF11
:102790004FF0FF30B8E79D4A1268D1789B4A5268E3
:1027A00010786B460122FEF793FE10B14FF0FF3018
:1027B000AAE79DF8000000F00F042CB99E4804F031
:1027C00039FF4FF0FF309FE7042C06D19BA004F0A7
:1027D00031FF01218D48C17402E000218B48C17492
:1027E000FF218A488172FF2088490872FF218748AB
:1027F0004172C1724FF6FF71C181FF210174817472
:102800000121017380F82210002180F82310417506
:1028100001751630016041608160163880F824101F
:1028200080F82510C1844FF4FA60FFF71AFF10B149
:102830004FF0FF3068E70220FFF7D1FE10B14FF0F4
:10284000FF3061E72A20FFF7D2FD10B14FF0FF30D3
:102850005AE73220FFF777FE10B14FF0FF3053E711
:102860000020FFF78FFD10B14FF0FF304CE7002044
:10287000FFF706FC10B14FF0FF3045E70020FFF7EF
:102880009AFB002040E770477CB504460D465F4840
:10289000807A00F0700010B94FF0FF307CBD5B4AC9
:1028A0001268117B594A526810786B460622FEF76F
:1028B0000FFE10B14FF0FF30F0E79DF801009DF8DA
:1028C000001040EA012000B220809DF803009DF82E
:1028D000021040EA012000B260809DF805009DF8DA
:1028E000041040EA012000B2A08015B12846FFF78D
:1028F000CAFF0020D2E77CB504460D464348807AE3
:1029000000F0080010B94FF0FF307CBD3F4A12685C
:10291000517B3E4A526810786B460622FEF7D8FD7E
:1029200010B14FF0FF30F0E79DF801009DF8001066
:1029300040EA012000B220809DF803009DF80210BB
:1029400040EA012000B260809DF805009DF8041067
:1029500040EA012000B2A08015B12846FFF793FF9E
:102960000020D2E72DE9FE4F05460C462748807A25
:1029700018B94FF0FF30BDE8FE8F244A1268917BF2
:10298000224A5268107802AB0222FEF7A1FD10B174
:102990004FF0FF30EFE79DF809009DF8081040EA7E
:1029A000012006B214B12046FFF76DFF17494968B0
:1029B000C88806F0A7FB154901904968B1F90800DD
:1029C00006F088FB8346304606F084FB59460090AB
:1029D00006F0E8FC8246019906F04AFA81461F4952
:1029E00006F0D8F980464FF08F4106F0D3FB07463A
:1029F00006F034FB28600020BDE710B588B004461F
:102A00001CB94FF0FF3008B010BD29E08400002051
:102A1000556E737570706F7274656420736F667431
:102A2000776172652070726F647563742072657669
:102A30002025642E0A00000020AD000848616C6665
:102A40002073656E73697469766974792070617238
:102A50007420666F756E642E0D0A000000000C4233
:102A6000206830B9606820B9A06810B9002008B0AB
:102A700010BDFA494968087806AB03221146FEF7F3
:102A800027FD10B14FF0FF30F1E79DF81800082145
:102A900001EB201000F00F00ADF800009DF81900C8
:102AA00001EB201000F00F00ADF802009DF81A00B5
:102AB00001EB201000F00F00ADF804002068410089
:102AC000BDF90000403091FBF0F000B2ADF810000D
:102AD00060684100BDF90200403091FBF0F000B2A7
:102AE000ADF81200A0684100BDF90400403091FB30
:102AF000F0F000B2ADF81400D8494968087806AB88
:102B000006221146FEF7E4FC10B14FF0FF30AEE7AD
:102B10009DF819009DF8181040EA012000B2ADF8A8
:102B200008009DF81B009DF81A1040EA012000B231
:102B3000ADF80A009DF81D009DF81C1040EA012028
:102B400000B2ADF80C00BDF81000BDF80810084444
:102B500000B2ADF81000BDF81200BDF80A1008442C
:102B600000B2ADF81200BDF81400BDF80C10084416
:102B700000B2ADF81400BDF81000000A8DF818007E
:102B8000BDF81000C0B28DF81900BDF81200000A9F
:102B90008DF81A00BDF81200C0B28DF81B00BDF808
:102BA0001400000A8DF81C00BDF81400C0B28DF8A6
:102BB0001D00AA494968087806AB06221146FEF7AF
:102BC00023FC10B14FF0FF3051E700204FE70146E2
:102BD000A248007A30B1012807D0022809D0032882
:102BE0000FD10AE0FA2008800EE04FF4FA70088056
:102BF0000AE04FF47A70088006E04FF4FA6008802B
:102C000002E00020088000BF00BF0020704701469E
:102C10009248407A30B1012807D0022808D0032812
:102C20000CD108E0022008700BE00420087008E0D6
:102C30000820087005E01020087002E04FF0FF3017
:102C4000704700BF8548C07C18B108784006000E68
:102C500008700020F4E701468048C07A082817D29F
:102C6000DFE800F01704070A0D101318BC200880D5
:102C700013E06220088010E02A2008800DE0142074
:102C800008800AE00A20088007E00520088004E0A8
:102C900000BF00BF0020088000BF00BF00207047B9
:102CA00001466E4890F8240010B14FF0FF30704795
:102CB0006A48C08908800020F9E7014600200880A2
:102CC000401E704701464FF0FF3070470146634891
:102CD000007A30B1012807D0022808D003280CD18F
:102CE00008E05F4808600BE05E48086008E05E4866
:102CF000086005E05D48086002E04FF0FF30704773
:102D000000BF0020FBE701465448407A30B101285B
:102D100008D002280AD0032810D10BE04FF48040DD
:102D200008800EE041F69C7008800AE04FF4805065
:102D3000088006E04FF40060088002E04FF0FF30AA
:102D4000704700BF4548C07C10B10888401008801B
:102D50000020F5E701464148007C087000207047DC
:102D600001463E48807A10B10120087001E0002041
:102D700008700020704738B504463848807A10B98A
:102D80004FF0FF3038BD354A1268117C334A526823
:102D900010786B460222FEF79BFB10B14FF0FF301C
:102DA000F0E79DF801009DF8001040EA012000B214
:102DB00020800020E6E72DE9FE4F07468846924630
:102DC0001D46DDF830B000260024244890F8240089
:102DD00010B1601EBDE8FE8F002028701F48807A69
:102DE00010B94FF0FF30F5E71C48007C10B94FF0E8
:102DF000FF30EFE71948007C00F0400008B1B01C3C
:102E0000C6B21648007C00F0200008B1B01CC6B263
:102E10001248007C00F0100008B1B01CC6B20F4888
:102E2000007C00F0080008B1B01DC6B20B4A126861
:102E3000917A0A4A526810786B460222FEF748FBE4
:102E400010B14FF0FF30C5E79DF801009DF800106C
:102E500040EA0129B1450BDA0020BBE784000020DD
:102E60000000034300008342333303423333834182
:102E7000FC4840684088B9EB600F17DDF94A1268DA
:102E8000517CF84A526810786B460122FEF720FB0D
:102E900010B14FF0FF309DE79DF8000000F01000EA
:102EA00020B1FFF791F96FF0010093E75046FFF76B
:102EB000EAFCEC4A1268D17AEA4A526810786B460A
:102EC0003246FEF705FB10B14FF0FF3082E799FB69
:102ED000F6F0401E8BF8000000202870B4422AD083
:102EE000E048007C00F0080028B3601C1DF80000DA
:102EF0001DF8041040EA012000B2A8F80000E01C10
:102F00001DF80010A01C1DF8000041EA002000B2CE
:102F1000A8F80200601D1DF80010201D1DF800001B
:102F200041EA002000B2A8F80400287840F0080028
:102F30002870A01D84B2B44213D0CA48007C00F0AF
:102F4000400070B1601C1DF800001DF8041040EA3C
:102F5000012000B23880287840F040002870A01C82
:102F600084B2B44213D0BF48007C00F0200070B19E
:102F7000601C1DF800001DF8041040EA012000B29A
:102F80007880287840F020002870A01C84B2B442D9
:102F900013D0B448007C00F0100070B1601C1DF824
:102FA00000001DF8041040EA012000B2B880287823
:102FB00040F010002870A01C84B200200AE7F8B589
:102FC00004460F461646A74890F8240010B94FF063
:102FD000FF30F8BDA348807A10B94FF0FF30F8E712
:102FE000A04A1268917A9F4A526810786B46022272
:102FF000FEF76EFA10B14FF0FF30EAE79DF80100DE
:103000009DF8001040EA0125A54203DA0020307047
:10301000401EDEE7934840684088B5EB600F17DD3F
:10302000904A1268517C8F4A526810786B46012290
:10303000FEF74EFA10B14FF0FF30CAE79DF80000DE
:1030400000F0100020B1FFF7BFF86FF00100C0E7FB
:10305000E2B2844B1B68D97A824B5B6818783B4696
:10306000FEF736FA10B14FF0FF30B2E795FBF4F0FF
:10307000401E30700020ACE701467A4880F82210EC
:10308000002070477CB5054676494968087801AB51
:1030900004220D21FEF71CFA08B107207CBD9DF823
:1030A0000700C0F301109DF8041001F0E00140EAB0
:1030B000E1008DF800009DF80700C0F381009DF845
:1030C000051001F0E00140EAE1008DF801009DF8F3
:1030D000070000F003009DF8061001F0E00140EA4F
:1030E000E1008DF8020000241CE01DF8040018B96E
:1030F000002045F8240013E05B4845F8240006E072
:1031000055F82400594906F045F845F824001DF803
:103110000400401EC0B20DF804000028F0D100BF2A
:10312000601CC4B2032CE0DB0020B7E72DE9FE4FA2
:1031300006460F4600256846FFF7A4FF002442E03C
:1031400056F8240057F82410A0EB010ABAF1000F3A
:1031500001DB514601E0CAF10001084605F0BAFF63
:1031600083464FF08F4105F083FE80465DF82400D2
:10317000002105F03FFF16D05DF82410404605F011
:1031800077FE82464FF07E5106F00CF9814629F019
:10319000004A3748416A504606F0C8F812D201206A
:1031A000A04005430EE03248C169404605F0BEFF2D
:1031B00005D32F48016A404606F0B8F802D2012034
:1031C000A0400543641C032CBADB2846BDE8FE8FF3
:1031D0002DE9FC5F06460F4600252249496808781C
:1031E00001AB03220D21FEF773F910B10720BDE8F2
:1031F000FC9F9DF8040000F01F008DF804009DF86E
:10320000050000F01F008DF805009DF8060000F095
:103210001F008DF80600002462E056F8240057F8DD
:103220002410A0EB010BBBF1000F01DB594601E0BC
:10323000CBF10001084605F04DFF4FF08F410090A3
:1032400005F016FE814601A8005DC0B30849086874
:1032500005F058FF83465946064805F009FE8046AA
:103260000FE00000840000207B14AE3E1D5A843F16
:103270000CA0000800B04C45FE49404605F08AFF0E
:10328000804601A8005D401EC0B201A90855002873
:10329000F2D14146484605F0EBFD83464FF07E51A2
:1032A00006F080F882462AF0004BF34881695846C0
:1032B00006F03CF813D20120A04005430FE0FFE7E1
:1032C000ED480169484605F031FF05D3EA484169F8
:1032D000484606F02BF802D20120A0400543641CAA
:1032E000032C9ADB284682E72DE9F04F87B005468C
:1032F0000C46914601208DF8100000208DF8110039
:10330000DE4A1268917CDD4A5268107804AB0222D2
:10331000FEF77AF820B14FF0FF3007B0BDE8F08F2C
:10332000C820FCF7EFFF00208DF81000D34A126888
:10333000D17BD24A5268107804AB0122FEF764F8C0
:1033400010B14FF0FF30E8E7CC4A12685179CB4A10
:103350005268107804AB0122FEF756F810B14FF016
:10336000FF30DAE7C54A1268917CC44A5268107887
:1033700004AB0122FEF748F810B14FF0FF30CCE764
:10338000BE4A1268D17DBD4A5268107804AB012252
:10339000FEF73AF810B14FF0FF30BEE7B74A1268B7
:1033A0001179B64A5268107804AB0122FEF72CF866
:1033B00010B14FF0FF30B0E70C208DF81000AF4A8D
:1033C00012681179AD4A5268107804AB0122FEF7F9
:1033D0001BF810B14FF0FF309FE70F20FCF792FF72
:1033E000A648806A407A8DF81000A44A1268917845
:1033F000A24A5268107804AB0122FEF705F810B11A
:103400004FF0FF3089E79D48806A007A8DF8100000
:103410009A4A12685178994A5268107804AB01228E
:10342000FDF7F2FF10B14FF0FF3076E7B9F1000F72
:1034300007D09248806A807A40F0E0008DF8100052
:1034400004E08E48806A807A8DF810008B4A1268FA
:1034500091798A4A5268107804AB0122FDF7D4FFB3
:1034600010B14FF0FF3058E7B9F1000F07D0834893
:10347000806AC07A40F0E0008DF8100003E07E48DA
:10348000C07A8DF810007D4A1268D1797B4A526863
:10349000107804AB0122FDF7B7FF10B14FF0FF30F9
:1034A0003BE7B9F1000F02D0C820FCF72BFF40200A
:1034B0008DF81000714A12681179704A52681078BC
:1034C00004AB0122FDF7A0FF10B14FF0FF3024E75D
:1034D00078208DF81000694A12685179674A52685D
:1034E000107804AB0122FDF78FFF10B14FF0FF30D1
:1034F00013E761498889FCF705FF00208DF810006B
:103500005E4A126851795D4A5268107804AB012214
:10351000FDF77AFF10B14FF0FF30FEE6574A126810
:10352000917A564A5268107804AB0222FDF7D0FF18
:1035300010B14FF0FF30F0E69DF811009DF810102B
:1035400040EA012B0C209BFBF0F0C6B20020A860E3
:1035500068602860A06060602060824665E0474A3D
:103560001268D17A454A5268107804AB0C22FDF7F4
:10357000AFFF10B14FF0FF30CFE69DF811009DF87E
:10358000101040EA012000B2ADF808009DF81300C9
:103590009DF8121040EA012000B2ADF80A009DF833
:1035A00015009DF8141040EA012000B2ADF80C009F
:1035B000BDF90810206808442060BDF90A10606851
:1035C00008446060BDF90C10A0680844A0609DF834
:1035D00017009DF8161040EA012000B2ADF8000077
:1035E0009DF819009DF8181040EA012000B2ADF8CE
:1035F00002009DF81B009DF81A1040EA012000B25D
:10360000ADF80400BDF90010286808442860BDF931
:103610000210686808446860BDF90410A86808448E
:10362000A8600AF1010000F0FF0AB24597DB1248DA
:10363000D0F800C02868C117090441EA1041070406
:1036400062460023384603F0D0FF32460023CDE91E
:10365000020103F0CAFF28600748D0F800C068687C
:10366000C117090441EA10410704624600233846A5
:1036700006E0000054E3853F0CA000088400002011
:1036800003F0B3FF32460023CDE9020103F0ADFFA2
:103690006860FE48D0F800C0A868C117090441EA74
:1036A0001041070462460023384603F09EFF32466D
:1036B0000023CDE9020103F098FFA860F348D0F899
:1036C00004C02168C817000440EA11480F0462468C
:1036D00000233846414603F088FF32460023CDE9F7
:1036E000020103F082FF2060E848D0F804C060685F
:1036F000C117090441EA1041070462460023384615
:1037000003F073FF32460023CDE9020103F06DFFA1
:103710006060DE48D0F804C0A068C117090441EA1F
:103720001041070462460023384603F05EFF32462C
:103730000023CDE9020103F058FFA060A068002833
:1037400004DDA068A0F58030A06003E0A06800F56B
:103750008030A0600020E0E538B50446CC4890F801
:103760002400A04201D1002038BD24B3C84890F8FD
:10377000250010B94FF0FF30F6E70020FEF75EFBA2
:103780000020FEF77DFCC249C88CFEF7DCFE00205D
:103790000090BF49496808786B4601222321FDF754
:1037A00033FE0121BA4880F824100120FEF746FBC1
:1037B000FEF70AFD13E00020FEF740FBB448007C52
:1037C0000090B349496808786B4601222321FDF730
:1037D0001BFE0021AE4880F82410FEF7F5FC002007
:1037E000C2E72DE9F04F8DB083460F4602200C90C2
:1037F000A74890F8240020B10020FFF7ADFF012674
:1038000000E0002603A8FFF7E2F905A8FFF7FFF99B
:1038100001A8FFF720FA02A8FFF742FA9C4890F8A7
:103820000AA004A8FFF796FA002407E00022394610
:103830005846FFF759FD00B902E0641C022CF5DB85
:1038400000BF022C01D1002528E0002407E001225E
:1038500006A909A8FFF748FD00B902E0641C022C84
:10386000F5DB00BF022C01D1002517E006A9384680
:10387000FFF75CFC00F0FF0809A95846FFF7A8FC19
:1038800000F0FF090025B9F1000F01D145F0010555
:10389000B8F1000F01D145F0020500BFFF207C49BF
:1038A0000872FF217A484172C1724FF6FF71C181DF
:1038B000FF218172017401210173BDF80C00FEF734
:1038C000D0FE9DF81400FEF78AFEBDF80400FEF756
:1038D0008EFDBDF80800FEF736FE5046FEF76BFB86
:1038E0009DF81000FEF74EFD16B10120FFF734FFE2
:1038F00028460DB0BDE8F08FF8B504460D461646D3
:1039000016B94FF0FF30F8BD6148807A10B94FF01A
:10391000FF30F8E720128DF80000E0B28DF80100CA
:103920009DF8010028445A4949684989884202DDC6
:103930004FF0FF30E7E7564A1268117E544A52684A
:1039400010786B460222FDF75FFD10B14FF0FF309B
:10395000D9E7EAB24E4B1B68597D4D4B5B6818782E
:103960003346FDF751FD10B14FF0FF30CBE700209B
:10397000C9E7F8B504460D46164616B94FF0FF30B4
:10398000F8BD4348807A10B94FF0FF30F8E72012B5
:103990008DF80000E0B28DF801009DF80100284488
:1039A0003B4949684989884202DD4FF0FF30E7E72B
:1039B000374A1268117E364A526810786B460222E6
:1039C000FDF722FD10B14FF0FF30D9E7EAB2304BDE
:1039D0001B68597D2E4B5B6818783346FDF778FDE0
:1039E00010B14FF0FF30CBE70020C9E72DE9F043DD
:1039F00085B005460E4690469946254890F8250024
:103A000020B14FF0FF3005B0BDE8F08316B94FF09C
:103A1000FF30F8E7002423E0281B102801DD1020E8
:103A200000E0281B87B2321939462046FFF764FFB1
:103A300010B14FF0FF30E6E701AA39462046FFF704
:103A400098FF10B14FF0FF30DDE730193A4601A979
:103A500003F06CFE10B16FF00100D4E7E01984B2FE
:103A6000AC42D9DB4FEA28208DF8000008F0FF00B7
:103A70008DF80100064A1268917E054A5268107856
:103A80006B460222FDF7C0FC38B103E00CA0000831
:103A9000840000204FF0FF30B5E701218A4880F80C
:103AA0002510A0F826900020ADE70146864890F842
:103AB000240008700020704702464FF0FF30704726
:103AC00001464FF0FF307047F8B505460F461446E3
:103AD000002C70D0B5F5FF5F01DDFF2605E0202D3D
:103AE00001DA012601E0C5F3471607B90127282CA2
:103AF00002DD4FF0FF30F8BD7348407D28BB7248AF
:103B000090F8240038B10020FFF726FE01216E480E
:103B100080F8201003E000216B4880F820106A48EC
:103B20001630FFF754F868481830FFF770F8664809
:103B30001A30FFF790F864481C30FFF7B1F862487C
:103B4000817A81771F30FFF705F90020FEF776F9BB
:103B50000020FEF78BFC00208DF800005A4A126806
:103B60009178594A526810786B460122FDF74CFC57
:103B700010B14FF0FF30BEE740208DF80000524AF0
:103B80001268D17B504A526810786B460122FDF7CB
:103B90003BFC00B165E08DF800608DF801704A4A89
:103BA0001268117A484A526810786B460222FDF773
:103BB0002BFC08B155E047E00520FCF7A3FB424889
:103BC000407A072101EBC000C0B28DF800003E4AE8
:103BD0001268D1793C4A526810786B460122FDF791
:103BE00013FC00B13DE020208DF80000012C03D132
:103BF00000208DF801000EE0052C03DC01208DF87B
:103C0000010008E0142C03DC02208DF8010002E022
:103C100003208DF801009DF80100072101EB8010C1
:103C2000C0B28DF80100284A1268917C264A526879
:103C300010786B460222FDF7E7FB00B111E001218D
:103C400021484175002056E71F4A1632002103E043
:103C5000505C00B105E0491C0C29F9D34FF0FF304E
:103C600049E7FF2018490872FF2117484172C172C5
:103C70004FF6FF71C181FF2181720174012101732F
:103C80000146887FFEF797F90F49C88AFEF7E9FCDD
:103C90000D49087EFEF7A3FC0B49488BFEF7A7FBF6
:103CA0000949888BFEF74FFC0749C87FFEF76AFB7E
:103CB000054890F8200010B10120FFF74DFD0021CC
:103CC00001484175002016E78400002010B5C82384
:103CD0004FF48062F74940F6F630FFF787FE10BDDB
:103CE00010B586B00446F4A000680390F3A0006805
:103CF0000290F3A000680190F2A00068009004F028
:103D0000030003A9085C8DF8140003A8C4F3C101E3
:103D1000405C8DF8150003A8C4F38111405C8DF858
:103D2000160004F0030002A9085C8DF8100002A838
:103D3000C4F3C101405C8DF8110002A8C4F38111E5
:103D4000405C8DF8120005AA032140F22640FFF7DF
:103D5000D3FD18B14FF0FF3006B010BD04AA032107
:103D600040F22A40FFF7C8FD10B14FF0FF30F3E7F3
:103D7000019805900098049004F0040058B19DF853
:103D8000140040F001008DF814009DF8100040F080
:103D900001008DF8100004F0200058B19DF81500C6
:103DA00040F001008DF815009DF8110040F0010071
:103DB0008DF8110004F4807058B19DF8160040F0A1
:103DC00001008DF816009DF8120040F001008DF8FA
:103DD000120005AA03214FF48860FFF78DFD10B192
:103DE0004FF0FF30B8E704AA032140F23140FFF75B
:103DF00083FD10B14FF0FF30AEE7B34804810020DF
:103E0000AAE71FB50446B048007A00F0030054F852
:103E100020000190AC48007A00F0040010B1019835
:103E200040420190A848007AC0F3C10054F8200035
:103E30000290A548007A00F0200010B1029840429C
:103E40000290A148007AC0F3811054F8200003903A
:103E50009D48008900F4807010B10398404203909F
:103E60009A49019880FB0101800F40EA810001908E
:103E70009649029880FB0110820042EA91700290FC
:103E80009249039880FB0110820042EA91700390EE
:103E90000198000E8DF800000198000C8DF80100CB
:103EA0000198000A8DF802000198C0B28DF8030055
:103EB0006A4604214FF47470FFF71EFD18B14FF0ED
:103EC000FF3004B010BD0298000E8DF8000002987B
:103ED000000C8DF801000298000A8DF8020002988B
:103EE000C0B28DF803006A4604214FF47570FFF7E5
:103EF00003FD10B14FF0FF30E3E70398000E8DF89B
:103F000000000398000C8DF801000398000A8DF85A
:103F100002000398C0B28DF803006A4604214FF4F2
:103F20007670FFF7E9FCCCE770B588B0064601A8CB
:103F3000FEF7E9FEBDF804000021C90341EA50453F
:103F4000C4036148007A00F0030056F82000059091
:103F50005D48007A00F0040010B1059840420590D9
:103F60005948007AC0F3C10056F820000690564820
:103F7000007A00F0200010B10698404206905248A6
:103F8000007AC0F3811056F8200007904E4800894F
:103F900000F4807010B10798404207900598C1174F
:103FA000A0FB042301FB043100FB0510810041EA62
:103FB000927005900698C117A0FB042301FB043101
:103FC00000FB0510810041EA927006900798C11726
:103FD000A0FB042301FB043100FB0510810041EA32
:103FE000927007900598000E8DF808000598000C57
:103FF0008DF809000598000A8DF80A000598C0B2EE
:104000008DF80B000698000E8DF80C000698000C39
:104010008DF80D000698000A8DF80E000698C0B2C3
:104020008DF80F000798000E8DF810000798000C0F
:104030008DF811000798000A8DF812000798C0B299
:104040008DF8130002AA0C214FF42570FFF754FCE1
:1040500008B070BD30B585B004461DA207CA02ABDA
:1040600007C3C82C03DD4FF0FF3005B030BDC820BA
:1040700090FBF4F0401E85B2280A8DF80000E8B2EB
:104080008DF801006A46022140F21620FFF734FC49
:1040900010B14FF0FF30E8E702AA0C2140F6C12032
:1040A000FFF72AFC10B14FF0FF30DEE706488481AD
:1040B0000020DAE734A000084CCD6C000CC92C00BD
:1040C00036567600264666004C05002009E3CA02F3
:1040D000FEF2ABC4AAF1DFDFBBAFDFDF0146FC4875
:1040E00080890880002070472DE9FC4706460F466E
:1040F00006F0070010B1B7F5C86F03DD4FF0FF30D1
:10410000BDE8FC87384604F0FDFF8146F14904F024
:10411000AFFE80466846FEF77AFD9DF80000022853
:1041200006D0042816D0082826D0102848D135E01B
:104130004FF08D41404605F02DF8814604F0AAFF6E
:1041400084B2E549404605F025F8814604F0A2FF17
:1041500085B238E04FF08C41404605F01BF88146AF
:1041600004F098FF84B2DD49404605F013F881461B
:1041700004F090FF85B226E04FF08B41404605F0F9
:1041800009F8814604F086FF84B2D549404605F01F
:1041900001F8814604F07EFF85B214E04FF08A41B9
:1041A000404604F0F7FF814604F074FF84B2CD4925
:1041B000404604F0EFFF814604F06CFF85B202E058
:1041C0004FF0FF309CE700BF20128DF80400E0B2F2
:1041D0008DF8050028128DF80600E8B28DF807006A
:1041E00006F00100A0B101AA02214FF4EA70FFF726
:1041F00083FB10B14FF0FF3082E70DF10602022180
:104200004FF49270FFF778FB10B14FF0FF3077E773
:1042100006F00200A0B101AA02214FF4EC70FFF7F2
:104220006BFB10B14FF0FF306AE70DF1060202217F
:104230004FF49470FFF760FB10B14FF0FF305FE771
:1042400006F00400A0B101AA02214FF4EE70FFF7BE
:1042500053FB10B14FF0FF3052E70DF1060202217F
:104260004FF49670FFF748FB10B14FF0FF3047E76F
:10427000002045E738B504460020009004F0010016
:1042800020B19DF8000040F03000009004F00200E2
:1042900020B19DF8000040F00C00009004F00400F4
:1042A00020B19DF8000040F0030000906A46012113
:1042B0004FF4A470FFF720FB38BD38B50446012C3D
:1042C00001DA012402E0042C00DD0424601EC0B2E7
:1042D00000906A46012140F24F10FFF70DFB38BDF8
:1042E00038B50446052094FBF0F085B228128DF80D
:1042F0000000E8B28DF801006A4602214FF4EF7029
:10430000FFF7FAFA38BD38B50446052094FBF0F003
:1043100085B228128DF80000E8B28DF801006A46D7
:1043200002214FF4ED70FFF7E7FA38BDF8B5054606
:104330000E464FF47A7095FBF0F000FB06F4200E69
:104340008DF80000200C8DF80100200A8DF8020085
:10435000E0B28DF803006A4604214FF4AE70FFF717
:10436000CBFAF8BD38B50446052094FBF0F084B2D2
:1043700020128DF80000E0B28DF801006A4602219B
:104380004FF4AD70FFF7B8FA38BD38B504460520D4
:1043900094FBF0F084B220128DF80000E0B28DF8AA
:1043A00001006A4602214FF4AC70FFF7A5FA38BD50
:1043B00038B5044614B94FF0FF3038BD6A460421C1
:1043C0004FF45870FFF7D5FA10B14FF0FF30F4E713
:1043D0009DF8000000069DF8011040EA01409DF89C
:1043E000021040EA01209DF80310084320600020DD
:1043F000E3E738B50446200E8DF80000200C8DF858
:104400000100200A8DF80200E0B28DF803006A4630
:1044100004214FF45870FFF76FFA38BD38B50446E1
:1044200014B94FF0FF3038BD6A4604214FF4717063
:10443000FFF79FFA10B14FF0FF30F4E79DF800004E
:1044400000069DF8011040EA01409DF8021040EA84
:1044500001209DF80310084300EB800080002060DD
:104460000020E0E738B504461420B4FBF0F4200E39
:104470008DF80000200C8DF80100200A8DF8020054
:10448000E0B28DF803006A4604214FF47170FFF723
:1044900033FA38BD38B5044664B120208DF80000E9
:1044A00028208DF8010030208DF8020038208DF88A
:1044B000030004E0A3220421684603F063F96A467E
:1044C000042140F69E20FFF717FAFDF77DFE38BD68
:1044D0004C05002000004843000040460000C04555
:1044E000000040450000C04438B5044664B1C02017
:1044F0008DF80000C2208DF80100C4208DF8020064
:10450000C6208DF8030004E08B220421684603F0E6
:1045100039F96A46042140F69820FFF7EDF9FDF7D6
:1045200053FE38BD3EB504466CB1FDA1D1E9002073
:104530008968CDE9002002916A4609214FF497600D
:10454000FFF7DAF93EBDF9A2D2E900109268CDE991
:10455000010200916A4609214FF49760FFF7CCF9F8
:10456000F0E73EB5044602208DF80000CA208DF821
:104570000100E3208DF8020009208DF803006A464F
:1045800004216820FFF7B8F9A3208DF8000004F09B
:10459000400048B1C0208DF80100C8208DF802000D
:1045A000C2208DF8030006E0A3208DF801008DF8ED
:1045B00002008DF8030004F4C07048B1C4208DF8E7
:1045C0000400CC208DF80500C6208DF8060006E01A
:1045D000A3208DF804008DF805008DF80600A320B7
:1045E0008DF807008DF808008DF809006A460A2149
:1045F00040F6A720FFF780F904F0030018B120204F
:104600008DF8000002E0D8208DF800006A460121F4
:1046100040F6B620FFF770F904F0200018B1012031
:10462000FFF780FF02E00020FFF77CFF04F4C0707A
:1046300008B304F4807060B1B2208DF800008B20C4
:104640008DF80100B6208DF802009B208DF8030044
:104650000BE0B0208DF8000080208DF80100B42020
:104660008DF8020090208DF803006A46042140F680
:10467000A220FFF741F904F0010020B3F8208DF8E3
:1046800000006A4601214FF40B60FFF735F9FA216B
:104690000720FFF729FD0720FFF7ECFD0120FFF7BA
:1046A0000CFE6420FFF71CFE4FF4FA70FFF72BFEA0
:1046B000C821A148FFF73AFE2820FFF753FE0A2041
:1046C000FFF763FE08E0D8208DF800006A4601215C
:1046D0004FF40B60FFF710F904F0020018B1D92075
:1046E0008DF8000002E0D8208DF800006A46012114
:1046F00040F23D70FFF700F904F0040018B101200A
:10470000FFF7F2FE02E00020FFF7EEFE04F01000DB
:1047100018B10120FFF7BEFE02E00020FFF7BAFE4D
:1047200044F0080085494881FDF74EFD002083498B
:10473000887304F0400018B10846807B801D8873A0
:1047400004F4C07020B17D48807B801D7B49887354
:1047500004F0140020B17948807B103077498873C9
:1047600004F0030020B17548807B001D73498873F5
:1047700000203EBD014671484089088000207047F6
:104780002DE9F0410446E07800F0C006E07800F042
:104790003F05607800F0010098B1EF102846E91756
:1047A00005EB5171C910A5EBC101491C01F0FF08CF
:1047B0006248006820B16148414602683846904727
:1047C00000BF607800F0080030B15C48406818B164
:1047D000B0115A4A516888470020BDE8F08110B5F1
:1047E00086B0044656A207CA03AB07C357A207CA3E
:1047F0008DE80700012C09D0022C0ED103AA0B2151
:1048000040F68220FFF778F806B010BD6A460B210B
:1048100040F68220FFF770F8F6E74FF0FF30F3E73D
:104820002DE9F04F8DB00746884615469946DDE9DB
:10483000166B0024002030804049887B5A4605A929
:10484000FEF7BDFB18B1601E0DB0BDE8F08F3B4810
:10485000807A00F01400002861D09DF81400000652
:104860009DF8151040EA01409DF8161040EA01201D
:104870009DF81710084328609DF8180000069DF861
:10488000191040EA01409DF81A1040EA01209DF8F5
:104890001B10084368609DF81C0000069DF81D1061
:1048A00040EA01409DF81E1040EA01209DF81F10CB
:1048B0000843A8609DF8200000069DF8211040EAFA
:1048C00001409DF8221040EA01209DF82310084382
:1048D000E86004F11000C4B2286800140190686810
:1048E00000140290A86800140390E8680014049073
:1048F00001984043029901FB0100039901FB01006B
:10490000049901FB010ABAF1706F02DBBAF1885F0A
:1049100022DDFDF759FC00203080401E94E721E0A5
:10492000B8AAB38DB4980D355D000000B8AAAAAA44
:10493000B088C3C5C700000009E3CA024C050020C7
:10494000D8B1B9F38BA391B609B4D900DAB1B9F3F0
:104950008BA391B6DAB4DA00B6F9000040F48070A7
:10496000308000BF3448807A00F0400020B305A9B1
:10497000601C085C095D40EA012000B2A8F8000054
:1049800005A9E01C095C05AAA01C105C41EA0020F6
:1049900000B2A8F8020005A9601D095C201D105C8A
:1049A00041EA002000B2A8F80400A01DC4B2B6F984
:1049B000000040F0080030801F48408900F4C070BB
:1049C00008B305A9601C085C095D40EA012000B23B
:1049D000388005A9E01C095C05AAA01C105C41EA0E
:1049E000002000B2788005A9601D095C201D105CC4
:1049F00041EA002000B2B880A01DC4B2B6F90000A0
:104A000040F0700030800C48807A00F0030018B14C
:104A100005A90819FFF7B4FE4846FDF734FF00204A
:104A200012E7014604480160002070470146024831
:104A300041600020704700004C0500202DE9F04146
:104A400005460C4689480168204604F0ABFC074641
:104A500087480168384604F09DFB06468548016892
:104A6000304604F097F983490860834841688348D9
:104A7000006804F097FC06467F488168304604F0E1
:104A800091FC7F4908607C48C06880F00040486025
:104A90007948C06880F0004088607A480068C86043
:104AA00008687349096804F075FB06467248016896
:104AB000304604F06FF970490860714948686C49E4
:104AC000096804F067FB06466B484168304604F00D
:104AD00061F9694948606A4988686549096804F06C
:104AE00059FB064664488168304604F053F9624930
:104AF00088606349C8685E49096804F04BFB064654
:104B00005D48C168304604F045F95B49C8605948C2
:104B10000168284604F046FC5B4908605B48007861
:104B200004F0F0FA064654480168304604F032FBBF
:104B3000574908605548007804F0E4FA06464E48A4
:104B40008168304604F026FB524908604F480078DF
:104B500004F0D8FA07464E480168384604F01AFBBC
:104B600006464D480168304604F014F94B49086088
:104B7000084601684648006804F07AF94849086028
:104B8000464801684348006804F072F945490860E6
:104B90003F480068444908603C48007804F0B2FA95
:104BA000064635484168304604F0F4FA3F4908604B
:104BB0003D4801683A48006804F0ECFA06462E4881
:104BC0000168304604F0E3FB2B4908603748016870
:104BD0003348006804F0DEFA06462748416830464C
:104BE00004F0D5FB244948602F4801682D4800682F
:104BF00004F0D0FA064620488168304604F0C7FB2E
:104C00001D498860294801682648006804F0C2FAF6
:104C100006461948C168304604F0B9FB1649C86019
:104C2000194801681E48006804F0B4FA06461148A5
:104C30000168304604F0AEF80E4908601248016879
:104C40001848006804F0A6FA06460848016830468D
:104C500004F0A0F80549086008460168204604F001
:104C6000A1FB13490860BDE8F0810000D0000020DE
:104C7000C8000020B4000020F4000020BC00002088
:104C80005C050020C0000020D4000020CC000020E3
:104C9000D8000020DC000020C4000020E00000203C
:104CA000E4000020E8000020EC000020F0000020DC
:104CB000B8000020014691F90020002A01DD002003
:104CC0001EE091F90020002A01DA042018E091F991
:104CD0000120002A01DD012012E091F90120002AC3
:104CE00001DA05200CE091F90220002A01DD022002
:104CF00006E091F90220002A01DA062000E00720F0
:104D0000704770B505462846FFF7D4FF0446E81CF7
:104D1000FFF7D0FF44EAC00084B2A81DFFF7CAFF26
:104D200044EA801084B2204670BD70B588B002A9F4
:104D300005A8FEF756FD0446072C3FD101A8FDF754
:104D4000C5FF059804F0C6F90646019904F022FA59
:104D5000054604F083F90590069804F0BBF9064671
:104D6000019904F017FA054604F078F906900798BF
:104D700004F0B0F90646019904F00CFA054604F077
:104D80006DF9079005A8FFF73CF86846FDF7BBFFF3
:104D9000BDF80010029848430290BDF80010039837
:104DA00048430390BDF8001004984843049002A8BB
:104DB000FFF7BAF8FEA002F03DFC00BF08B070BDDE
:104DC0002DE9F04304460D46DDE907670021012087
:104DD00041E0DFF800C43CF81080A0F1010CDFF8DE
:104DE000F49329F81C8009F1160C3CF81090A0F1FE
:104DF000010CDFF8E08308F1160828F81C9008F190
:104E0000160C3CF81090A0F1010C08F1160828F8D7
:104E10001C9008F1160C3CF81090A0F1010C08F160
:104E2000160828F81C9008F1160C3CF81090A0F118
:104E3000010C08F1160828F81C9008F1160C3CF833
:104E40001090A0F1010C08F1160828F81C9000F150
:104E5000010C0CF0FF000A28BBDBDFF878C3ACF8CC
:104E60001240ACF82850ACF83E20ACF85430ACF806
:104E70006A60ACF880700021002008E0DFF854C3BD
:104E80003CF910C0614400F1010C0CF0FF000A284D
:104E9000F4DB4FF00A0C91FBFCFC0FFA8CFCDFF802
:104EA0003483A8F814C0002100200AE0DFF824C3EE
:104EB0000CF1160C3CF910C0614400F1010C0CF02F
:104EC000FF000A28F2DB4FF00A0C91FBFCFC0FFA02
:104ED0008CF8DFF800C3ACF82A80002100200AE03B
:104EE000DFF8F0C20CF12C0C3CF910C0614400F169
:104EF000010C0CF0FF000A28F2DB4FF00A0C91FBCA
:104F0000FCFC0FFA8CF8DFF8CCC2ACF84080002132
:104F100000200AE0DFF8BCC20CF1420C3CF910C0E2
:104F2000614400F1010C0CF0FF000A28F2DB4FF0A5
:104F30000A0C91FBFCFC0FFA8CF8DFF898C2ACF875
:104F40005680002100200AE0DFF888C20CF1580CDE
:104F50003CF910C0614400F1010C0CF0FF000A287C
:104F6000F2DB4FF00A0C91FBFCFC0FFA8CF8DFF837
:104F700064C2ACF86C80002100200AE0DFF854C263
:104F80000CF16E0C3CF910C0614400F1010C0CF006
:104F9000FF000A28F2DB4FF00A0C91FBFCFC0FFA31
:104FA0008CF8DFF830C2ACF88280BDE8F08338B509
:104FB0000446032302226B21D0200094FCF756FB09
:104FC00038BD38B50446022304221B21D0200094AA
:104FD000FCF74CFB38BD38B50446022304221C21E3
:104FE000D0200094FCF742FB38BD10B504462346A0
:104FF00006226B21D020FCF76EFB10BD10B5764B5E
:1050000001227521D020FCF7C1FA7348007810BD49
:1050100010B5FFF7F3FF682801D1012010BD002073
:10502000FCE710B50446234605226A21D020FCF790
:1050300052FB10BD10B50446234601223721D02073
:10504000FCF749FB10BD10B50220FFF7B0FF0320AD
:10505000FFF7B7FF0020FFF7BEFF0020FFF7C5FFF7
:105060000020FFF7DEFF0020FFF7E4FF10BD38B59A
:10507000002000906B46012275216820FCF728FA79
:1050800056A002F0D7FA9DF8000068280ED000BFA5
:105090005B48006800F4E0605A490843001D584925
:1050A0000860BFF3408F00BF00BFFEE7FDF71BFBAA
:1050B00000283CD17820FCF77EFF10B947A002F011
:1050C000B9FA7820FDF75EF910B94FA002F0B2FAF4
:1050D000C820FDF738FA10B955A002F0ABFAFEF778
:1050E000F5FD10B95CA002F0A5FA6848FFF709FECB
:1050F0000446FEF7F5FD10B965A002F09BFA40F2F8
:105100007310FFF72EFA10B96BA002F093FAC820C3
:10511000FEF7A0FF10B972A002F08CFAFFF705FEAF
:105120000120FEF719FB10B976A002F083FA38BD12
:105130002DE9F04F89B007A87B4908AB03AACDE958
:1051400000107A497A48FFF76BFB7748008800F433
:10515000807000282AD0039803F0BCFF04464FF06B
:105160009D4103F085FE73490860049803F0B2FF87
:1051700004464FF09D4103F07BFE6F49086005989F
:1051800003F0A8FF04464FF09D4103F071FE6B4908
:105190000860069803F09EFF04464FF09D4103F01F
:1051A00067FE6749086063480168CBE0F6E00000ED
:1051B00073657474696E67206269617320737563C7
:1051C00063657366756C6C79202E2E2E2E2E2E0D37
:1051D0000A0000007A0500206C0500206D70755FE4
:1051E0007365745F73656E736F7220636F6D706C3F
:1051F000657465202E2E2E2E2E2E0D0A0000000026
:105200000CED00E00000FA056D70755F636F6E666F
:1052100069677572655F6669666F20636F6D706C34
:10522000657465202E2E2E2E2E2E0D0A00000000F5
:105230006D70755F7365745F73616D706C655F72BF
:1052400061746520636F6D706C657465202E2E2E01
:105250002E2E2E0D0A000000646D705F6C6F61646D
:105260005F6D6F74696F6E5F6472697665725F6699
:1052700069726D7761726520636F6D706C657465BE
:10528000202E2E2E2E2E2E0D0A000000280100208A
:10529000646D705F7365745F6F7269656E7461745D
:1052A000696F6E20636F6D706C657465202E2E2E95
:1052B0002E2E2E0D0A000000646D705F656E616217
:1052C0006C655F6665617475726520636F6D706C87
:1052D000657465202E2E2E2E2E2E0D0A0000000045
:1052E000646D705F7365745F6669666F5F72617429
:1052F0006520636F6D706C657465202E2E2E2E2ECA
:105300002E0D0A006D70755F7365745F646D705F5C
:10531000737461746520636F6D706C657465202EA5
:105320002E2E2E2E2E0D0A00100100200A01002024
:1053300004010020180100201C0100202001002091
:10534000240100204FF0804003F024FF01903048FA
:105350000168019803F01EFF02902E4801684FF08B
:10536000404003F017FF01902B480168019803F0BB
:1053700011FF8346029903F00DFD824603F0DEFC27
:10538000064602F00FFC04464FF06632234B03F052
:10539000FBF9804602F034FF2149086009B0BDE8FE
:1053A000F08F2DE9F05F4221D020FCF7CCF80546C4
:1053B0004121D020FCF7C7F805EB0024204603F07C
:1053C00089FE82464FF08E41504603F0AFFF05D272
:1053D0004FF08F41504603F0E5FF82461149504699
:1053E00003F046FD834603F0A9FC80460E4A0F4BAE
:1053F00002F038FF064600220D4B03F0C5F90446C3
:1054000002F0FEFE8246504603F028FEBDE8F09F03
:10541000200100201C0100202401002066A64C4031
:10542000140100200000AA43A4703D0AD743424063
:105430000000244038B5FBF751FA5EA2002108466F
:10544000FBF753FB5FA219210020FBF74EFB5F48DF
:10545000006800280FDA5EA219212D20FBF745FB1A
:105460000C20052300905948006842421921412030
:10547000FBF7F1FA0DE057A219212D20FBF735FBC0
:105480000C20052300905148192102684120FBF7A8
:10549000E2FA51A223210020FBF727FB50480068C5
:1054A00000280FDA4AA223212D20FBF71EFB0C2037
:1054B000052300904A480068424223214120FBF71F
:1054C000CAFA0DE043A223212D20FBF70EFB0C208E
:1054D000052300904248232102684120FBF7BBFAD4
:1054E00040A22D210020FBF700FB40A22D213A20F5
:1054F000FBF7FBFA3EA22D215020FBF7F6FA3D48C0
:105500000068642190FBF1F40C20022322462D2137
:1055100000900846FBF79FFA36480068642190FB2C
:10552000F1F201FB12040C20022322462D210090EF
:105530004420FBF790FA2F480068642190FBF1F2B9
:1055400001FB12000A2807DA0C20022300222D2179
:1055500000903E20FBF77FFA27A20F210020FBF7E7
:10556000C4FA00212648006803F0E0FD11D2254965
:105570002348006803F00EFC054603F08BFD04464B
:105580001020032322460F2100903220FBF763FAFC
:105590000CE01B48006803F07DFD04461020032347
:1055A00022460F2100903220FBF755FAFBF773F9E2
:1055B00038BD00004D61646520696E204368696EE6
:1055C00061000000456E636F313A00000800002062
:1055D0002D0000002B000000456E636F323A000082
:1055E0000C000020566F6C74610000002E0000005B
:1055F000560000001C000020416E676C653A0000F8
:10560000200000200000B44331490143314A1160B9
:10561000704770B5002100230F22C47804B32D4CCD
:10562000246804F4E064C4F5E064210AC1F10403D1
:10563000CA40447804FA03F18478144021430901F4
:10564000254C0678A155047804F01F050124AC40D0
:1056500005786D11AD0005F1E025C5F8004109E0C0
:10566000047804F01F050124AC401C4D0678761127
:1056700045F8264070BD1A4A0A400243154B1B1FCD
:105680001A60704739B1134A121D12680243114B58
:105690001B1D1A6006E00F4A121D126882430D4B53
:1056A0001B1D1A607047042808D14FF0E0210969DA
:1056B00041F004014FF0E022116107E04FF0E021DA
:1056C000096921F004014FF0E022116170470000E8
:1056D0000000FA050CED00E000E400E080E100E0ED
:1056E00080FFFF1F10B50446FA48844208D101210B
:1056F000401500F0BBFD0021601500F0B7FD17E07C
:10570000F548844208D10121001500F0AFFD0021C9
:10571000201500F0ABFD0BE0F048844208D10121D8
:10572000C80300F0A3FD00214FF4004000F09EFDEF
:1057300010BD30B50246002000235068E84C2040E0
:105740000D790C6844EA0524204350609068E54CCC
:105750002040D1E902542C434D7944EA45042043CA
:105760009060D06A20F470000C7C641EE4B2234385
:1057700040EA0350D06230BD0021016001714171E7
:105780008160C16001210174704721B1826842F0DB
:105790000102826003E0826822F0010282607047A9
:1057A00021B1826842F48072826003E0826822F450
:1057B00080728260704710B50023CBB21AB1446882
:1057C0001C43446002E044689C43446010BD81680F
:1057D00041F0080181607047014600208A6802F0AC
:1057E00008020AB1012000E000207047816841F002
:1057F000040181607047014600208A6802F00402BB
:105800000AB1012000E00020704721B1826842F413
:10581000A002826003E0826822F4A00282607047E6
:10582000014600208A6802F480020AB1012000E0EB
:105830000020704710B50A4600210023416821F47A
:105840006041531E41EA4331416010BD21B14268BD
:1058500042F40062426003E0426822F40062426067
:105860007047F0B504460D4600200021092D11DDDA
:10587000E068A5F10A0606EB4607072606FA07F1D7
:105880008843A5F10A0606EB460603FA06F108432B
:10589000E0600CE0206905EB4507072606FA07F1F2
:1058A000884305EB450603FA06F108432061072A01
:1058B0000FDA606B561E06EB86071F2606FA07F105
:1058C0008843561E06EB860605FA06F10843606318
:1058D00022E00D2A0FDA206BD61F06EB86071F2663
:1058E00006FA07F18843D61F06EB860605FA06F18D
:1058F0000843206310E0E06AA2F10D0606EB86077C
:105900001F2606FA07F18843A2F10D0606EB86066C
:1059100005FA06F10843E062F0BD21B1826842F465
:105920008012826003E0826822F4801282607047F5
:105930000146C86C80B2704766484C3000687047BA
:1059400021B1426842F48062426003E0426822F47E
:1059500080624260704721B1426842F480524260E6
:1059600003E0426822F48052426070470A460021F8
:10597000816821F4E04111438160704721B1826860
:1059800042F40042826003E0826822F400428260B6
:10599000704721B1826842F40212826003E082689B
:1059A00022F4021282607047014600208A6802F4E5
:1059B00000120AB1012000E000207047F0B5044653
:1059C0001546002000220026092911DDE068A1F11A
:1059D0000A0707EB470C072707FA0CF29043A1F1DF
:1059E0000A0707EB470703FA07F21043E0600CE0F1
:1059F000206901EB410C072707FA0CF2904301EBF9
:105A0000410703FA07F210432061A06BC0F301566F
:105A1000EF1C06F1010CA7EB0C0707EB870C1F2707
:105A200007FA0CF29043EF1C06F1010CA7EB0C07F0
:105A300007EB870701FA07F21043A063F0BD10B52A
:105A40000A4600210023816B21F44011531E41EAD4
:105A50000351816310BD08B5002300930090009BA3
:105A60000B440093009B1A6008BD08B50246002055
:105A70000090009201F12800009B184400900098CB
:105A8000006880B208BD0A4600214168164B1940E3
:105A90001143416070474162826270470A460021AB
:105AA000416821F01F0111434160704740B109492D
:105AB0000831096841F40001064A0832116007E024
:105AC00004490831096821F40001024A08321160D2
:105AD000704700000024014000280140003C0140C4
